:020000040800F2
:10000000E8090020890100089F240008AD1A0008B3
:100010009D24000851030008AD2A000800000000DC
:10002000000000000000000000000000A324000801
:100030006103000800000000A12400085925000801
:10004000A3010008A3010008A3010008A301000800
:10005000A3010008A3010008A3010008A3010008F0
:10006000A3010008A3010008A3010008A3010008E0
:10007000A3010008A3010008A3010008550300081C
:10008000A3010008A3010008A3010008A3010008C0
:10009000A3010008A3010008A3010008A3010008B0
:1000A000A3010008A3010008A3010008A3010008A0
:1000B000BD250008C9250008A3010008A301000808
:1000C000A3010008A3010008A3010008A301000880
:1000D000A3010008952A0008A12A0008A30100082E
:1000E000A3010008A3010008A301000800F002F822
:1000F00000F03AF80AA090E8000C82448344AAF188
:100100000107DA4501D100F02FF8AFF2090EBAE885
:100110000F0013F0010F18BFFB1A43F0010318473B
:100120006849000088490000103A24BF78C878C1A7
:10013000FAD8520724BF30C830C144BF04680C60ED
:10014000704700000023002400250026103A28BF35
:1001500078C1FBD8520728BF30C148BF0B60704739
:100160001FB51FBD10B510BD00F06CF81146FFF7AC
:10017000F7FF03F0E1F900F08AF803B4FFF7F2FFAC
:1001800003BC00F08DF8000009488047094800478B
:10019000FEE7FEE7FEE7FEE7FEE7FEE7FEE7FEE737
:1001A000FEE7FEE704480549054A064B7047000094
:1001B000BB250008ED000008E8030020E809002046
:1001C000E8050020E80500204FF0000200B51346C6
:1001D00094469646203922BFA0E80C50A0E80C5067
:1001E000B1F12001BFF4F7AF090728BFA0E80C5018
:1001F00048BF0CC05DF804EB890028BF40F8042B11
:1002000008BF704748BF20F8022B11F0804F18BF7D
:1002100000F8012B704770477047704710B500F029
:1002200009F8006810BD10B5044600F003F804603A
:1002300010BD000000487047880300200048704748
:10024000880300207546FFF7F9FFAE4605006946B2
:10025000534620F00700854618B020B5FFF7A2FFEF
:10026000BDE820404FF000064FF000074FF00008B7
:100270004FF0000B21F00701AC46ACE8C009ACE838
:10028000C009ACE8C009ACE8C0098D46704710B59C
:100290000446AFF300802046BDE81040FFF76DBF75
:1002A00001491820ABBEFEE726000200704700009F
:1002B0002DE9F05F214CD4E90A53D4E908011F4627
:1002C0002A4603F00BFC02F037FFDFF8749000229F
:1002D0004B4603F0B5FDDFF86CA0DFF86CB052467A
:1002E0005B4603F0FBFB03F017FB184E80462A46E3
:1002F0007061D4E906013B4603F0F0FB02F01CFFFD
:1003000000224B4603F09CFD52465B4603F0E6FBA1
:1003100003F002FBB061D4E9000103F0FDFA0146ED
:10032000404601F08BFDD4E9020103F0F5FA0146E5
:10033000B069BDE8F05F01F04BBE00001003002083
:10034000008066401F85EB51B81E094074000020F4
:10035000FEE70000014800F0CFB800007002002066
:100360007047000010B503F0E1F802490120487021
:1003700010BD00003700002072B6FEE72DE9FF41F6
:1003800001AD0C231F22D2211948009501F0C2FBB8
:10039000174F00240C3F174ED7F8048035F814008F
:1003A00040BA00B204F090F8414604F0B9F803F006
:1003B0003BFF06EBC402641CC2E90601032CEDDB23
:1003C000BF68002405EB4400C08840BA00B204F0C6
:1003D0007BF8394604F0A4F803F026FF06EBC402CC
:1003E000641CC2E90001032CECDBBDE8FF810000C6
:1003F0005000002010030020064910B50878401C6A
:100400000870C00701D1FFF7B9FFBDE81040FFF742
:100410004FBF00004400002010B590F821100022CA
:10042000022905D00421816380F82020012010BD1D
:1004300001680B6823F00E030B6001680B6823F062
:1004400001030B6090F84030C46B012101FA03F303
:10045000636080F8211080F82020104610BD000055
:1004600010B590F821100024022903D004218163E3
:1004700001243DE001680A6822F00E020A6001686A
:100480000A6822F001020A601A4A0168914201D109
:10049000012121E0174A1432914201D110211BE0C1
:1004A000144A2832914201D1891515E0114A3C3293
:1004B000914201D189140FE00E4A5032914202D18B
:1004C0004FF4803108E00B4A6432914202D14FF47C
:1004D000801101E04FF08071064A083A5160012115
:1004E00080F82110002180F82010416B01B188476D
:1004F000204610BD080002402DE9F05FC16B0C687A
:1005000001680B68D0F840C0042202FA0CF2494D91
:10051000DFF824A1494E4A4FDFF828B1DFF828E17F
:1005200022422CD05A072AD50A68920603D40A68B8
:1005300022F004020A600168A94201D1042219E0F4
:10054000514501D1402215E0B14202D14FF4806201
:1005500010E0B94202D14FF480420BE0594502D17C
:100560004FF4802206E0714502D14FF4800201E091
:100570004FF080622F4908394A60C16A3BE04FF072
:10058000020808FA0CF818EA040F4FF000094FF0BF
:10059000010235D05FEA837832D50B689B0605D41B
:1005A0000B6823F00A030B6080F821200168A94240
:1005B00001D1022219E0514501D1202215E0B142BA
:1005C00002D14FF4007210E0B94202D14FF4005250
:1005D0000BE0594502D14FF4003206E0714502D1DB
:1005E0004FF4001201E04FF00072124908394A60DE
:1005F00080F82090816A00291AD0BDE8F05F084792
:10060000082505FA0CF5254212D01B0710D50B68FA
:1006100023F00E030B6090F84010C36B02FA01F157
:100620005960826380F8212080F82090016BE2E716
:10063000BDE8F09F080002401C000240300002406C
:1006400044000240580002406C00024030B528B31C
:1006500008C8134914221944B1FBF2F18900C1639F
:1006600010498163022141771A6843F6F0718A4389
:10067000D0E900142143D0E902452C432143046909
:1006800021434469214384692143114319600021B6
:100690004163012242770177084630BD012030BD19
:1006A000F8FFFDBF0000024070B5044600F010F9ED
:1006B0000546601C02D004480078044400F008F9A4
:1006C000401BA042FAD370BDE40000202DE9F84F92
:1006D000DFF8B8910024A9F1040B23460F2709F194
:1006E000040AABF1040EC9E00125A5402A40AA4244
:1006F0007DD1674ED1F804C0ACEB0608B44532D0CA
:1007000014DCBCF1030F3AD009DCBCF1000F2AD095
:10071000BCF1010F1CD0BCF1020F31D11DE0BCF1C6
:10072000110F17D0BCF1120F2AD119E0B8F5881FAC
:1007300019D006DCB8F5803F15D0B8F5801F1FD161
:1007400011E0B8F5001F0ED0B8F5041F18D10AE06B
:10075000CB6815E0CB681B1D12E0CB6808330FE0B7
:10076000CB680C330CE08B682BB1012B4FF00803E6
:1007700003D0456104E0042302E0056100E00023AA
:10078000FF2A01D8064601E000F104064FEA84057D
:1007900001D9A5F12005D6F8008007FA05FC28EA62
:1007A0000C0803FA05F548EA0508C6F800804D680C
:1007B000ED0062D5374DAE6946F00106AE61AD6918
:1007C00024F0030605F001050095334D06EB050CFA
:1007D000DCF80850A607360F07FA06F825EA0805E0
:1007E000DFF8B880404503D14FF0000817E044E03F
:1007F000DFF8AC80404502D14FF001080FE0DFF890
:10080000A480404502D14FF0020808E0DFF898804C
:10081000404502D14FF0030801E04FF0040808FA08
:1008200006F848EA0508CCF808804D68D9F8006059
:10083000ED024D4601D5164300E096432E604D680B
:10084000DAF80060AD02554601D5164300E0964344
:100850002E604D68DBF80060AD035D4601D51643A0
:1008600000E096432E604D68DEF80060ED037546AB
:1008700001D5164300E096432E60641C0D682A469D
:10088000E5407FF431AFBDE8F88F00000804014077
:10089000000011100010024000000140000801405B
:1008A000000C014000100140001401408068084025
:1008B00000D001207047C26821EA02030A4043EADF
:1008C0000241016170470AB1016170470904FBE709
:1008D0000148806870470000E400002002488168F9
:1008E0000278114481607047E4000020074810B589
:1008F000016841F010010160032000F075F80F203D
:1009000000F006F800F024F8002010BD002002409E
:1009100070B50D4D04464FF47A712878B1FBF0F0B4
:100920000A490968B1FBF0F000F0DCFA48B9102C74
:1009300007D200222146501E00F036F800206C60DD
:1009400070BD012070BD0000E4000020F000002018
:100950000C4808B5816941F001018161816901F0AC
:1009600001010091C16941F08051C161C06900F08D
:10097000805000900448416821F0E06141F000712E
:10098000416008BD0010024000000140002809DB62
:1009900000F01F02012191404009800000F1E02099
:1009A000C0F8001170470000F0B40E4B1B680C46F5
:1009B000C3F30223C3F10705042D00D90425191D33
:1009C000072901D2002300E0DB1E012606FA05F10B
:1009D000491E214099409E40761E16403143F0BC8E
:1009E00002F079B80CED00E0064900F00702086853
:1009F0004FF6FF03184040EA0220034A1043086004
:100A0000704700000CED00E00000FA052DE9F0470A
:100A10000F46050061D0434E306800F00700B84231
:100A200009D2306820F0070038433060306800F0A9
:100A30000700B84251D128683B4C810712D54007C6
:100A400003D5606840F4E06060602878000703D553
:100A5000606840F4605060606068A96820F0F00051
:100A6000084360602878C00728D06868012810D043
:100A70002168022810D0890700292EDA616821F048
:100A8000030101436160FFF723FF804641F288398B
:100A90000DE021688903EFE78901EDE7FFF718FF13
:100AA000A0EB0801494502D90320BDE8F087606842
:100AB000696800F00C00B0EB810FEFD1306800F0F6
:100AC0000700B8420BD9306820F007003843306087
:100AD000306800F00700B84201D00120E5E728782F
:100AE000400705D56068E96820F4E060084360606D
:100AF0002878000706D56068296920F4605040EA2C
:100B0000C100606000F038F86168084AC1F3031161
:100B1000515CC8400649086006480068FFF7F8FEC7
:100B20000020C2E70020024000100240B848000840
:100B3000F0000020E80000200448054900684968EA
:100B4000044AC1F30221515CC8407047F000002004
:100B500000100240C8480008044805490068496878
:100B6000044AC1F3C221515CC8407047F000002024
:100B700000100240C84800080E4A51680E4801F0B3
:100B80000C03042B11D0082B0FD10C48C1F3834365
:100B9000C903C05C0AD55168084AC1F34041921E9E
:100BA000515C054A5043B0FBF1F07047044948439B
:100BB000704700000010024000127A00A8480008A8
:100BC00000093D002DE9F84F040070D02078C04D99
:100BD000C00749D06868C0F38100012807D0686861
:100BE000C0F38100022809D16868C00306D52868CF
:100BF000800339D560680028E7D035E06068B0F53B
:100C0000803F0BD010B1B0F5A02F11D0286820F490
:100C100080302860286820F4802002E0286840F4B2
:100C200080302860606890B1FFF752FE06460AE007
:100C3000286840F480202860F0E700BFFFF748FEF6
:100C4000801B642873D828688003F7D50CE0FFF771
:100C50003FFE064605E000BFFFF73AFE801B642812
:100C6000F0D828688003F7D420789A4E80074FF098
:100C700001094FF0000839D5686810F00C0F07D053
:100C80006868C0F38100022809D16868C00306D4EF
:100C90002868800714D52069012808D110E0206950
:100CA000B0B1C6F80090FFF713FE074605E00AE171
:100CB000FFF70EFEC01B0228C4D828688007F7D5AE
:100CC0002868616920F0F80040EAC10028600DE062
:100CD000C6F80080FFF7FCFD074604E0FFF7F8FDCB
:100CE000C01B022823D828688007F7D42078000783
:100CF0002CD57948A169D9B1C0F80090FFF7E8FD7B
:100D0000074604E0FFF7E4FDC01B02280FD8686A1D
:100D10008007F7D571484FF4FA510068B0FBF1F045
:100D2000009000BF0098411E0091FAD20EE080E0D2
:100D3000C0F80080FFF7CCFD074604E0FFF7C8FDD0
:100D4000C01B022875D8686A8007F7D4207840074E
:100D500060D5E8690027C00008D4E86940F08050F9
:100D6000E861E869012700F0805000905C48016864
:100D7000C90513D40168834641F480710160FFF70F
:100D8000A7FD824606E000BFFFF7A2FDA0EB0A0028
:100D900064284ED8DBF80000C005F5D5E0680128CE
:100DA0000AD008B1052813D0286A20F00100286273
:100DB000286A20F0040002E0286A40F0010028625E
:100DC000E06841F2883B98B1FFF782FD82460BE074
:100DD000286A40F004002862EEE700BFFFF778FDC4
:100DE000A0EB0A0159455AD8286A8007F6D50CE0CD
:100DF000FFF76EFD824605E0FFF76AFDA0EB0A01F2
:100E000059454CD8286A8007F6D41FB1E86920F00C
:100E10008050E861E06988B36968C1F38101022903
:100E200044D00228C6F8608004D0FFF751FD044684
:100E300038E034E0FFF74CFD074604E0FFF748FDDB
:100E4000C01B02282BD828688001F7D4206AB0F58F
:100E5000803F05D16868A16820F4003008436860CD
:100E6000D4E908010843696821F4741108436860F3
:100E7000C6F86090FFF72CFD044606E025E000BFB1
:100E8000FFF726FD001B022809D828688001F7D546
:100E90001BE000BFFFF71CFD001B022802D9032046
:100EA000BDE8F88F28688001F4D40EE00128F7D05F
:100EB0006868226A00F48031914204D1616A00F4CA
:100EC0007010884201D00120EAE70020E8E7000026
:100ED000001002400000424280044242F000002024
:100EE0000070004010B5401EB0F1807F01D301209A
:100EF00010BD4FF0E02460610F21601701F0EBFDA1
:100F00000020A06107202061002010BD70477047BD
:100F100010B590F83C20012A22D0012280F83C2014
:100F2000CA688C6822F4407222434C6822F48062C2
:100F300022430C6822F4006222430C6922F480529E
:100F400022434C6922F400522243C969002322F44F
:100F500080420A4301684A6480F83C30002010BD9A
:100F6000022010BD70B590F83C20012A26D0012443
:100F700080F83C40022280F83D2003685A689D6852
:100F800022F070060A6832435A600D4B02689A429A
:100F900008D0B2F1804F05D00A4B9A4202D00A4BDA
:100FA0009A4204D1496825F080031943916080F882
:100FB0003D40002180F83C10084670BD022070BD05
:100FC000002C0140000400400008004010B504005F
:100FD00003D094F83D0010B107E0012010BD0020BF
:100FE00084F83C00204600F01FF8022084F83D0001
:100FF000211D206801F0EEFA012084F8460084F8F3
:101000003E0084F83F0084F8400084F8410084F8F2
:10101000420084F8430084F8440084F8450084F8D2
:101020003D00002010BD000008B51A4A01681A48AA
:10103000914208D1816941F400618161806900F4C5
:101040000060009008BDB1F1804F14D0134A914266
:10105000F8D1C16941F00201C161C069002200F00C
:101060000200009002211D20FFF79EFC1D20BDE81C
:101070000840FFF78BBCC16941F00101C161C06943
:10108000002200F00100009011461C20FFF78CFCAC
:101090001C20ECE7002C014000100240000400403E
:1010A00090F83D10012901D001207047022180F8FD
:1010B0003D100168CA6842F00102CA6000680B492D
:1010C000884208D0B0F1804F05D00949884202D04B
:1010D0000849884204D1816801F00701062903D03C
:1010E000016841F00101016000207047002C0140BF
:1010F00000040040000800400168CA6822F00102B4
:10110000CA6001680A6A41F211131A4207D10A6AD9
:101110009B101A4203D10A6822F001020A600121E1
:1011200080F83D100020704770B5044690F83C00F0
:101130000025012817D0012684F83C60022084F89D
:101140003D002068826822F0770222F47F428260AC
:101150000868502838D00DDC20284FD005DC90B32B
:10116000102811D14AE0022070BD302846D0402816
:101170000AD13BE060282FD070280DD0B0F5805FF9
:1011800003D0B0F5005F12D0012584F83D60002047
:1011900084F83C00284670BDCB68D1E90121206865
:1011A00001F05BFA2068816841F0770109E0CB68C3
:1011B000D1E90121206801F050FA2068816841F4EA
:1011C00080418160E1E719E0CA684968206801F060
:1011D000F9FA5021206806E0CA684968206801F0E1
:1011E00002FB6021206801F042FACEE7CA68496834
:1011F000206801F0E7FA40212068F4E72268014600
:101200001046F0E7704770B50446006801694FF07A
:101210000005C943890715D4C168C943890711D49A
:10122000E91E01610120207720688069800720463F
:1012300002D0FFF7E7FF04E000F0BEF8204600F020
:1012400050F9257720680169C943490717D4C16857
:10125000C943490713D46FF00401016102202077CC
:101260002068806910F4407F204602D0FFF7CAFF53
:1012700004E000F0A1F8204600F033F9257720685B
:101280000169C943090716D4C168C943090712D4C3
:101290006FF008010161042020772068C069800791
:1012A000204602D0FFF7AEFF04E000F085F82046AC
:1012B00000F017F9257720680169C943C90617D4DA
:1012C000C168C943C90613D46FF010010161082039
:1012D00020772068C06910F4407F204602D0FFF7D5
:1012E00091FF04E000F068F8204600F0FAF8257756
:1012F00020680169C943C90708D1C168C943C90742
:1013000004D1891E0161204600F03AF92068016984
:10131000C943090609D4C168C943090605D46FF059
:10132000800101612046FFF7F1FD20680169C94392
:10133000490609D4C168C943490605D46FF0400184
:101340000161204600F034F920680169C94389062B
:101350000BD4C168C943890607D46FF0200101612D
:101360002046BDE87040FFF7D2BD70BD00B585B026
:101370000021009101910291039100680B4988427C
:1013800012D10B48816941F004018161806969468D
:1013900000F0040004904FF470600090022001906F
:1013A00003900448FFF792F905B000BD002C0140FE
:1013B0000010024000080140704770B5044690F8E4
:1013C0003C0000260D4601280FD0012084F83C0087
:1013D0006AB1042A1DD0082A2FD00C2A3FD001263A
:1013E000002084F83C00304670BD022070BD2068AB
:1013F00001F046F92068816941F0080181612068A7
:10140000816921F004018161206881692A691143A1
:1014100011E0206801F05CF92068816941F4006105
:1014200081612068816921F480618161206881691E
:101430002A6941EA02218161D2E7206801F074F94A
:101440002068C16941F00801C1612068C16921F0CB
:101450000401C1612068C1692A69114311E0206853
:1014600001F08EF92068C16941F40061C161206812
:10147000C16921F48061C1612068C1692A6941EABA
:101480000221C161ACE710B5040003D094F83D001F
:1014900010B107E0012010BD002084F83C00204678
:1014A00000F01EF8022084F83D00211D206801F0A4
:1014B00091F8012084F8460084F83E0084F83F004B
:1014C00084F8400084F8410084F8420084F8430026
:1014D00084F8440084F8450084F83D00002010BDE5
:1014E0007047704710B50446022249B104290ED056
:1014F000082913D094F84100012816D0012010BD0E
:1015000094F83E000128F9D184F83E200FE094F8C9
:101510003F000128F2D184F83F2008E094F8400011
:101520000128EBD184F8402001E084F84120012219
:10153000206801F085F80F492068884203D1426C89
:1015400042F4004242642068884208D0B0F1804FE3
:1015500005D00949884202D00849884204D18168EF
:1015600001F00701062903D0016841F00101016083
:10157000002010BD002C0140000400400008004085
:1015800010B504460748844203D140210648FFF7BE
:1015900092F90648844203D1BDE8104001F09ABF99
:1015A00010BD0000980100200008014050010020FB
:1015B0007047704770470000F8B501680446086836
:1015C000CA684B6910F00F0F4FF0000559D003F0B7
:1015D000010602F49077374365D0C10705D0D105E5
:1015E00003D5616C41F001016164410705D5D9075C
:1015F00003D0616C41F002016164810705D5D90710
:1016000003D0616C41F004016164010707D502F069
:101610002001314303D0616C41F008016164616CC9
:1016200000293AD0800604D5900602D5204601F064
:101630001BF920684069616CC0F38010090700D471
:1016400060B3204601F0E9F820684069400621D5E2
:101650002068143050E8001F21F0400140E80012DB
:10166000002AF5D1E06BA8B16D494163E06BFEF74C
:10167000F7FE002811D0E06B416B01B0BDE8F040EF
:10168000084783060FD593060DD52046BDE8F840E0
:1016900001F0EAB82046FFF78DFFF8BD2046FFF7BE
:1016A00089FF6564F8BD266B2023012E7CD1C60618
:1016B0007AD5D60678D508684868009048694FF012
:1016C0000206400640D5E16B086840680004000C43
:1016D000E8D0A28D8242E5D9E085886920282DD006
:1016E00020680C3050E8001F21F4807140E800129F
:1016F000002AF5D12068143050E8001F21F00101C4
:1017000040E80012002AF5D12068143050E8001F8C
:1017100021F0400140E80012002AF5D184F842305F
:10172000256320680C3050E8001F21F0100140E8CC
:101730000012002AF5D1E06BFEF76EFE6663A08D05
:10174000E18D401A81B22AE0A08DE18D401A81B26C
:10175000E08D0028A6D00029A4D022680C3252E8DF
:10176000000F20F4907042E80007002FF5D12068A8
:10177000143050E8002F22F0010240E80027002F2B
:10178000F5D184F84230256320680C3050E8002FF2
:1017900022F0100240E80023002BF5D166632046BA
:1017A000FFF707FFF8BDFFE705062BD5150629D57E
:1017B00094F841002128F5D1A068B0F5805F01D1EF
:1017C0002069B0B1206A411C21622168007848601C
:1017D000E08C401E0004000CE084E3D12068C16866
:1017E00021F08001C1602068C16841F04001C16002
:1017F000D8E7206A0088C0F308004860206A801C8F
:101800002062E5E74006CDD55006CBD5CA68204614
:1018100022F04002CA6084F8413000F046F9C1E786
:101820000B28000870B5040004D094F8410000258E
:1018300010B106E0012070BD84F84050204600F051
:1018400023F8242084F841002068C16821F4005165
:10185000C160204601F06AF82068016921F49041D6
:1018600001612068416921F02A0141612068C16855
:1018700041F40051C1606564202084F8410084F87F
:1018800042006563002070BDF0B585B0002500956D
:1018900001950295039506463B4C03683B4802219F
:1018A0000322A34242D1836943F480438361836965
:1018B00003F480430493836943F0080383618069E0
:1018C000334C00F0080004904020CDE90001039261
:1018D00069462046FEF7FAFE8027CDE90075694685
:1018E00020460295FEF7F2FE2A48416841F0E06189
:1018F00041F004014160294C2748C4E90005C4E9CE
:10190000025720202561C4E90550C001E06120464E
:10191000FEF79CFE08B1FEF72FFDF463002211468E
:1019200025206662FFF740F8252029E01C4CA342E1
:1019300028D1C36943F40033C361C36903F400339E
:101940000493836943F0040383618069154C00F0BC
:10195000040004900420CDE900010392694620466A
:10196000FEF7B4FE0820CDE9000569462046029541
:10197000FEF7ACFE002211462620FFF715F82620C0
:10198000FFF704F805B0F0BD003801400010024038
:10199000000C01400000014058000240700200208D
:1019A000004400400008014090F84230202B01D054
:1019B0000220704721B11AB10023036301F012B86D
:1019C0000120704710B5044600680C49884204D1D4
:1019D00001220B490B48FFF7E7FF0B4920688842BB
:1019E0000BD107490122491C0848FFF7DDFF0448D5
:1019F0004078BDE8104001F017BE10BD003801402E
:101A000035000020E00100200044004028020020B2
:101A10002DE9F843044690F841001F4616460D464E
:101A2000202802D00220BDE8F8837DB176B10020E5
:101A30006064212084F84100FEF74AFFA6848046B6
:101A4000E684A068B0F5805F02D003E00120EAE7F9
:101A5000206910B12E4600250EE000260CE0802102
:101A6000204600F0DAFFA0B9AEB116F8010B2168EC
:101A70004860E08C401EE084E08C43464FF000025A
:101A800000970028EBD14FF04001204600F0C5FF41
:101A900030B10320C7E735F8020BC0F30800E6E7D2
:101AA000202084F841000020BDE77047FEE770B5B4
:101AB0000D46044600F0E0F8A1890022A068FEF778
:101AC00002FFA18800222068FEF7FDFE94F82000A6
:101AD00001F044FCA189A0680DB1012200E00022C0
:101AE000FEF7F1FE94F8200001F038FCA1880122F5
:101AF0002068FEF7E8FE94F8200001F02FFCA18892
:101B000000222068FEF7DFFE94F82000BDE8704058
:101B100001F024BC2DE9F0411E4690460C460546D6
:101B2000069F00F0F2F82146284600F0B3F8284658
:101B300000F037F985F821004146284600F0AAF860
:101B4000284600F02EF985F82200284600F0DDF83E
:101B500044F00101284600F09DF8284600F021F9E4
:101B600085F82300002407E000F03BF838550021F9
:101B70002846FFF79CFF641CB4422846F4DBBDE80E
:101B8000F04100F0E8B870B516460D46044600F086
:101B9000BCF82946204600F07DF8204600F001F907
:101BA00084F821003146204600F074F8204600F009
:101BB000F8F884F82200204600F0A7F845F001016B
:101BC000204600F067F8204600F0EBF884F8230088
:101BD000204600F006F80546204600F0BCF82846EE
:101BE00070BD2DE9F041002504462E4600F036F880
:101BF000A18800222068FEF766FE94F8200001F01C
:101C0000ADFB0127A18801222068FEF75CFE94F855
:101C1000200001F0A3FBA189A068FEF747FE012880
:101C200014D0C5F1070007FA00F08643A18800220E
:101C30002068FEF748FE94F8200001F08FFB6D1C31
:101C4000EDB2082DDED33046BDE8F081C5F10701C5
:101C500007FA01F03043C6B2E8E70000054982897F
:101C60000A6000224A6001228A600322CA608068FA
:101C7000FEF72CBD68030020054982890A60012215
:101C80004A608A600322CA608068FEF71FBD0000B8
:101C9000680300202DE9F0410F4604460025FFF7B8
:101CA000EBFFA1890022A068FEF70DFEA1880022AB
:101CB0002068FEF708FE94F8200001F04FFB012693
:101CC000C5F1070106FA01F03842A189A06801D0E8
:101CD000012200E00022FEF7F6FD94F8200001F05A
:101CE0003DFBA18801222068FEF7EDFD94F820005D
:101CF00001F034FBA18800222068FEF7E4FD6D1C92
:101D0000EDB2082DDCD3BDE8F08110B50446FFF735
:101D1000B3FFA1890122A068FEF7D5FDA1880122A9
:101D20002068FEF7D0FD94F8200001F017FBA18990
:101D30000022A068FEF7C7FD94F8200001F00EFB1A
:101D4000A18800222068FEF7BEFD94F82000BDE8BF
:101D5000104001F003BB10B50446FFF78DFFA189C9
:101D60000022A068FEF7AFFDA18800222068FEF7E0
:101D7000AAFD94F8200001F0F1FAA1880122206860
:101D8000FEF7A1FD94F8200001F0E8FAA1890122F4
:101D9000A068FEF798FD94F82000BDE8104001F01F
:101DA000DDBA70B5044690F8200001F0D7FA00259E
:101DB0002046FFF753FFA18801222068FEF783FD2C
:101DC00094F8200001F0CAFAA189A068FEF76EFD20
:101DD000012800D10125A18800222068FEF773FDAB
:101DE00094F8200001F0BAFA284670BD2DE9F041C0
:101DF0001E4617460D460446FFF787FF2946204634
:101E0000FFF748FF2046FFF7CCFF84F82100394652
:101E10002046FFF73FFF2046FFF7C3FF84F822006C
:101E200031462046FFF736FF2046FFF7BAFF84F819
:101E300023002046BDE8F041FFF78DBF2DE9F34FA9
:101E4000604C87B0E1690491089802F03FFC216979
:101E5000009102F065FB02F0E7F9DFF86C81D8E948
:101E60000E2301F08BFD04F14005064668680F461D
:101E700001460290606802F029FCA968019102F015
:101E800025FC524902460860E868834680F000401D
:101E9000486081468860A068C86082461046009904
:101EA00002F03EFB296802F0EBF9039048460099E6
:101EB00002F036FB8146029902F0E2F902904846B0
:101EC000019902F0DDF901905046009902F028FBDB
:101ED000594602F0D5F90590207802F00DFB0090EC
:101EE000039902F01DFB81466062DDE9000102F00A
:101EF00017FBA06206904946009802F011FBE168CA
:101F000002F0BEF98246E0625146484602F01AFAF3
:101F1000834620635146069802F014FAC4E90D097D
:101F200082460299009802F0FBFAE063009049466D
:101F3000584602F0F5FA039902F0BEFB28605846B5
:101F4000009902F0EDFA029902F0B6FB686049468A
:101F5000504602F0E5FA019902F0AEFBA860504647
:101F6000009902F0DDFA059902F0A6FBE8600798F7
:101F700002F05AF932463B4602F06CF801F0CCFC14
:101F8000054620622946584602F0CAFA02F04CF98A
:101F900032463B4601F0F2FCC8E90E0129465046A4
:101FA00002F0BEFA049902F06BF90146E06108986C
:101FB00002F08CFB02F038F9C8E9000109B0BDE875
:101FC000F08F000074000020100300207803002030
:101FD0002DE9F34F5F4C8DB0E1690A910E9802F044
:101FE00075FB2169009102F09BFA02F01DF9DFF800
:101FF0006881D8E9102301F0C1FC04F140050746CF
:1020000068680E4601460290606802F05FFBA968AE
:10201000019102F05BFB51490860EA68934682F047
:1020200000424A6091468A60A268CA60924600995E
:1020300002F076FA296802F023F9049048460099E4
:1020400002F06EFA8146029902F01AF903904846AE
:10205000019902F015F902905046009902F060FAD9
:10206000594602F00DF90B900D9802F0DDF83A4652
:10207000334601F0EFFF01F04FFC834620622078E9
:1020800002F03AFA0C90049902F04AFA6062814632
:1020900002990C9802F044FAA062079049460C9805
:1020A00002F03EFAE16802F0EBF88246E062514647
:1020B000484602F047F9206301905146079802F024
:1020C00041F9C4E90D09824603990C9802F028FAF7
:1020D000E06306904946019802F022FA049902F062
:1020E000EBFA28600699019802F01AFA039902F0B7
:1020F000E3FA68604946504602F012FA029902F08B
:10210000DBFAA8605046069902F00AFA0B9902F031
:10211000D3FAE8605946019802F002FA02F084F816
:102120003A46334601F02AFCC8E9100159465046A8
:1021300002F0F6F90A9902F0A3F80146E0610E9860
:1021400002F0C4FA02F070F8C8E902010FB0BDE86D
:10215000F08F00007400002010030020780300209E
:10216000094808B5416941F0010141614069002217
:1021700000F00100009001210F20FEF715FCBDE8E2
:1021800008400F20FEF702BC001002402DE9F04786
:1021900086B000252D48009501950295039581692B
:1021A00041F010018161816901F0100104918169A0
:1021B00041F020018161816901F020010491816970
:1021C00041F004018161816901F004010491816998
:1021D00041F0080181618069DFF8748000F0080037
:1021E0004FF460440490002221464046FEF76BFB0A
:1021F000DFF86090002240214846FEF764FBDFF8DC
:1022000058A040F60647012239465046FEF75BFBD0
:10221000009401AA0124022682E870006946404623
:10222000FEF754FA40208DE8710069464846FEF7F3
:102230004DFA0320CDE90240CDE9007469465046CD
:10224000FEF744FA06B0BDE8F08700000010024037
:102250000010014000080140000C014010B596B08C
:1022600000240F9410941194129413941C21684626
:102270001494FDF7A9FF202107A8FDF7A5FF354815
:10228000334901604721C0E9011442F20F71C0E9EE
:1022900003148021C0E90541FEF798FE08B1FEF75E
:1022A0006BF84FF480500F900FA92A48FEF73CFFBF
:1022B00008B1FEF761F82748FFF7E5F808B1FEF727
:1022C0005BF8139413A923481494FEF74BFE08B14E
:1022D000FEF752F86020CDE90004029403940494C0
:1022E0000594002269461B480694FFF766F808B17A
:1022F000FEF742F8042269461648FFF75EF808B177
:10230000FEF73AF8082269461248FFF756F808B176
:10231000FEF732F80C2269460E48FFF74EF808B176
:10232000FEF72AF80794089409944FF400500A9491
:10233000CDE90B4007A907480E94FEF7E9FD08B167
:10234000FEF71AF80348FFF711F816B010BD0000A9
:10235000002C01400801002010B586B00024174869
:10236000009401940294039404944FF080410594E6
:10237000016040F2E731C0E9011440F2CF21C0E929
:10238000031480218161FEF721FE08B1FDF7F4FFFF
:102390004FF48050009069460848FEF7C5FE08B12A
:1023A000FDF7EAFF049404A904480594FEF7DAFD5A
:1023B000002801D0FDF7E0FF06B010BD500100205D
:1023C00010B586B000241848009401940294039438
:1023D000049414490594016042F20F71C0E901149C
:1023E00041F61F41C0E9031480218161FEF7EEFD33
:1023F00008B1FDF7C1FF4FF48050009069460A48CC
:10240000FEF792FE08B1FDF7B7FF049404A9064851
:102410000594FEF7A7FD002801D0FDF7ADFF06B03B
:1024200010BD000000040040980100200C4810B5C9
:102430000A4901604FF416514160002181600C226D
:10244000C160C0E904128161C161FFF7EBF90028A6
:1024500003D0BDE81040FDF78FBF10BD003801402C
:10246000E00100200C4810B50A4901604FF4E13149
:102470004160002181600C22C160C0E904128161C9
:10248000C161FFF7CFF9002803D0BDE81040FDF788
:1024900073BF10BD0044004028020020FEE7FEE7A5
:1024A0007047704770B50546491C41EA45101E4605
:1024B0001446C3B25022D2211E48FFF797FC761C67
:1024C00046EA4410C3B24F22D2211A48FFF78EFCCD
:1024D00018494FF07E500C39C5B1012D13D0022D93
:1024E0000DD0032D08D04860082C21D2DFE804F07D
:1024F0001F1D1B19171513114FF0625201E04FF009
:1025000064524A60F0E74FF06652FAE74FF06852C3
:10251000F7E709480CE009480AE0094808E00948DB
:1025200006E0094804E0094802E0094800E00948DB
:10253000886070BD500000200000FA3900007A3A2F
:102540000000FA3A00007A3B0000FA3B00007A3CB7
:102550000000FA3C00007A3DFEF7C0B930B58FB0FC
:1025600028216846FDF730FE14210AA8FDF72CFE4D
:1025700001210804CDE900100024029402250491F1
:10258000CDE907504FF4E01009906846FEF71AFBBA
:1025900008B172B6FEE70F20CDE90A054FF480605E
:1025A000CDE90C4002210AA80E94FEF72FFA00286C
:1025B00001D072B6FEE70FB030BD70470148FEF79C
:1025C00022BE0000500100200148FEF71CBE0000A2
:1025D00098010020F0B50268164B174C174D4FF0CC
:1025E0008047984205D0B84203D0A04201D0A8420B
:1025F00003D122F070064A683243984205D0B842AF
:1026000003D0A04201D0A84203D122F44074CA688A
:1026100022434C6922F08002224302608A68C2622F
:102620000A688262984201D109690163012141610E
:10263000F0BD0000002C01400004004000080040F4
:1026400010B501F01F030121046A99408C43046214
:10265000016A9A401143016210BD10B5846842EAD4
:10266000032224F47F440A432243826010BD82681F
:1026700022F070020A4342F00701816070470000B7
:1026800030B5036A026A22F001020262426884697C
:1026900024F073050C682C4323F002058B682B4350
:1026A0000A4DA8420BD123F00805CB6822F44072F2
:1026B0002B434D6923F0040315438A692A43426082
:1026C000846149684163036230BD0000002C014011
:1026D00030B5026A036A23F0100303624368846919
:1026E0000D6824F4E64444EA05248D6822F02002B3
:1026F00042EA05120B4DA8420ED1CD6822F08002AD
:1027000042EA05124D6923F4406343EA85038D696B
:1027100022F0400243EA8503436084614968816393
:10272000026230BD002C014030B5036A026A22F417
:10273000807202624268C46923F4007324F0730556
:102740000C682C438D6843EA05230C4DA8420ED13A
:10275000CD6823F4006343EA05234D6922F4405217
:1027600042EA05128D6923F4806342EA0512426051
:10277000C4614968C163036230BD0000002C0140A0
:1027800030B5046A026A22F4805202624268C36968
:102790000D6823F4E64343EA05238D6824F40054CE
:1027A00044EA0534064DA84204D14D6922F4804222
:1027B00042EA85124260C36149680164046230BD27
:1027C000002C014010B5036A046A24F0010404627D
:1027D000846924F0F00444EA021423F00A020A4354
:1027E0008461026210BD10B5036A046A24F010040B
:1027F0000462846923F0A00324F4704444EA0232A2
:1028000043EA01118261016210BD10B5406A0021E6
:10281000C185C184FEF7CEFE10BD01680C3151E8C0
:10282000002F22F4907241E80023002BF5D10168BB
:10283000143151E8002F22F0010241E80023002B5F
:10284000F5D1016B012909D101680C3151E8002F44
:1028500022F0100241E80023002BF5D1202180F85E
:10286000421000210163704708B590F842102229F8
:1028700001D0022008BD82684FF480539A4201D1F2
:10288000016921B1816A9A421BD04AB10AE002680B
:10289000816A5268C2F308020A80816A891C08E0D2
:1028A000026972B10268526802F07F020A70816A9E
:1028B000491C8162C18D491E0904090CC18503D0E0
:1028C0001BE002685268F1E70168CA6822F0200242
:1028D000CA600168CA6822F48072CA6001684A69E5
:1028E00022F001024A61202180F842100021416358
:1028F000026B012A03D0FFF765F8002008BD0163D1
:1029000001680C3151E8002F22F0100241E8002349
:10291000002BF5D101680A68D20602D50A68496819
:102920000091818DFEF745FEE7E7000070B5044693
:1029300000680169E26821F4405111430161216995
:10294000A0680843616908432168CA6841F20C63C2
:102950009A430243CA6020684169A26921F4407128
:10296000114341611E492068884202D1FEF7F4F804
:1029700001E0FEF7E1F800EBC00101EB0012606836
:1029800064218000B2FBF0F3B3FBF1F36FF01806A3
:102990007343B2FBF0F5B2FBF0F605EB830532238F
:1029A00003EB0515B5FBF1F5B6FBF1F605F0F00507
:1029B00005EB0615B2FBF0F6B2FBF0F0B0FBF1F060
:1029C0006FF01802504306EB800003EB0010B0FBE1
:1029D000F1F0216800F00F002844886070BD00000D
:1029E0000038014081628285C28500214164222134
:1029F00080F84210016921B10168CA6842F480720E
:102A0000CA6001684A6942F001024A610068C1680F
:102A100041F02001C160002070472DE9F041984647
:102A200017460E460446069D27E0681C25D02DB1AA
:102A3000FDF74EFFA0EB0800A8421ED920680C301D
:102A400050E8001F21F4D07140E80012002AF5D1AF
:102A50002068143050E8001F21F0010140E8001206
:102A6000002AF5D1202084F8410084F8420000209B
:102A700084F840000320BDE8F0812068006836EA51
:102A8000000004D00020B842CFD00020F3E701209E
:102A9000F9E700000148FEF78FBD0000E0010020CB
:102AA0000148FEF789BD000028020020FEE749002A
:102AB00050EAC12018BF04204A0D18BF40F00100A1
:102AC00040F2FF72B2EB515F08BF40F002000128F4
:102AD00008BF052070470907090E002804DB00F134
:102AE000E02080F80014704700F00F0000F1E020B3
:102AF00080F8141D704700002DE9F74F144694B07C
:102B00000021C4E902111599079121F00045C94936
:102B10008D4206DC1599C4E9000117B00020BDE81C
:102B2000F08FC549DFF814A3A9423CDD0799C44ED4
:102B30000029C44FC44A1599534619DD01F08AFA99
:102B4000554506D0C14AC24B01F084FAC4E90001E0
:102B50000AE04FF0D352BE4B01F07CFA32463B46BE
:102B600001F078FAC4E9000117B00120BDE8F08F48
:102B700000F004FF554506D0B44AB54B00F0FEFE08
:102B8000C4E900010AE04FF0D352B14B00F0F6FE69
:102B900032463B4600F0F2FEC4E9000117B04FF0A8
:102BA000FF30BDE8F08FAB49A942159978DB21F0E1
:102BB000004183468846A84AA84B01F041F900220B
:102BC000A74B00F0DBFE01F0E1F8099001F00DF9F0
:102BD00006460F469C4A534601F032F943465A4690
:102BE00001F02CFA80468A46984A994B304639467D
:102BF00001F026F92A0D01250B924246534601F0B9
:102C00001DFA032DC4E9000139D00B98C1F30A5114
:102C1000401A05EB45111139814230DA9148C3461B
:102C2000784400EB0510CDF80CA00C90D0E90023FF
:102C30003046394601F004F902460B4604910690ED
:102C40005846039901F006FA80468A4602460B462A
:102C50005846039901F0FEF9049B069A01F0FAF92F
:102C600083460C9803913946D0E90223304601F09F
:102C7000E7F85A46039B01F0EDF96D1CBDE7079894
:102C80000028A2BF099817B0BDE8F08F616881F0F5
:102C900000416160099817B04042BDE8F08FFFE73E
:102CA00084461598C1F31301C0F30A50A0F2F53021
:102CB0004FEA601800F01F06C6F1200013900020B4
:102CC0000690079041F4801E05206D4676B1664A55
:102CD00008EB00017A4452F8213002EB8101B34045
:102CE0004A68139922FA01F1194305E05F4908EB9C
:102CF0000002794451F82210A1FB0E27A1FB0C130E
:102D00001A449A4234BF0123002303EB070A05EB60
:102D10008003D3E901B70F448F4234BF0121002162
:102D200093448B4411B1934502D903E0934501D2FA
:102D3000012100E00021C3E901B7514445F820100A
:102D4000011EA0F10100C1DC0298059F00F10050B6
:102D5000800F12900298DDE90356800001F045F8DB
:102D6000834628460D9101F057F86FF01D0201F0DF
:102D700054FDCDE90E01304601F04EF86FF03D02F2
:102D800001F04BFD80468A46384601F045F86FF069
:102D90005D0201F042FD074642465346119100F0A4
:102DA000EDFDDDE90E2300F0E9FD5A460D9B00F034
:102DB000E5FD00250E465A4628460D9B01F04AF9CE
:102DC000DDE90E2301F046F94246534601F042F98F
:102DD0003A46119B01F032F9DFF898A0244A534695
:102DE00001F02EF807468846234A244B31462846F0
:102DF00001F026F83A46434600F0C0FD07468846F3
:102E00004FF0A84253463146284601F019F83A4699
:102E1000434600F0B3FD159A12F0004F04D0129A09
:102E200081F0004152421292C4E90001129817B099
:102E3000BDE8F08FFB21E93F7CD90240FB21F93F3F
:102E40007370032E8A19A33B000040543163621A49
:102E500061B4D03DFB21394183C8C96D305FE43F87
:102E60000000E03F741D0000F01C0000D21C0000B8
:102E7000182D4454FB21F93D3326A611460B113C75
:102E80002DE9FF4D21F0004807460C46B8F1795F67
:102E900008DA00F07BFF002801BF0020324904B0AF
:102EA000BDE8F08D3A4623461046194600F0C8FFAB
:102EB000054602462D480E460B460621784400F092
:102EC0005DF82A46334600F0BBFFDDE90223824667
:102ED0008B463846214600F0B3FF04460F46524663
:102EE0005B462846314600F0ABFF22463B4601F0E8
:102EF000B1F807468A464FF0FF322846314601F0C6
:102F00008CFC1B4A90450ADA3A46534601F0A2F877
:102F100004B00022BDE8F04D134B01F08FB8154A04
:102F20004245A8BFA8F500154FF00004B8BF124DE8
:102F300022462B4601F08EF80646884622462B464E
:102F40000020094901F086F804460D463A465346EA
:102F50003046414601F07EF804B022462B46BDE8DB
:102F6000F04D01F06BB800000000F03FA81A00001F
:102F70003333D33F0000E93F0000D23F2DE9F04159
:102F80004F1E00EBC7010446D1E9000115461E465D
:102F900037F006020DD02A46334600F051FF7F1E5F
:102FA00004EBC703D3E9002300F0E8FC37F0060286
:102FB000F1D1022F25D0042F13D0062F18BFBDE862
:102FC000F0812A46334600F03BFFD4E90A2300F0A3
:102FD000D5FC2A46334600F033FFD4E9082300F03D
:102FE000CDFC2A46334600F02BFFD4E9062300F03F
:102FF000C5FC2A46334600F023FFD4E9042300F041
:10300000BDFC2A46334600F01BFFD4E9022300F042
:10301000B5FC2A46334600F013FFD4E90023BDE88F
:10302000F04100F0ABBC00002DE9FF4D054621F05A
:10303000004084B00C46B0F1795F0BDA2846FFF708
:1030400036FD042808BF00F06FF8284608B0214676
:10305000BDE8F08D2A460B46104600F0F1FE06460C
:103060000F462A46234600F0EBFE804626488A4655
:1030700032463B4605217844FFF780FF834610988F
:10308000029160B3214A224B4046514600F0D8FEDF
:10309000CDE900015A4640465146029B00F0D0FE61
:1030A00082468846DDE906014FF0FF3201F0B5FBAC
:1030B0005246434600F0CEFF32463B4600F0C0FE8B
:1030C000DDE9062300F0C6FFDDE9002300F0C2FFC2
:1030D00008B02A462346BDE8F04D00F0AFBF0B46CE
:1030E0005A463046394600F0ABFE084A084B00F01D
:1030F00045FC4246534600F0A3FE08B02A4623464C
:10310000BDE8F04D00F03ABCE619000049555555B0
:103110005555C5BF012201F080BB00221346104661
:10312000114600F0DBBC0000024A0020110701F04C
:1031300074BB000001FDFFFF2DE9F84F04460D466A
:1031400021F0004000917349814211DC72498842AC
:1031500001DC06D12CB120462946BDE8F84FFFF727
:10316000D9BF6E48002DCCBF6D496E49BDE8F88FC0
:103170006D49814211DD6D498142D8BF4FF0FF3664
:103180006DDD20462946FFF792FC042808BFFFF7B3
:10319000CBFF20462946BDE8F88F6549654F25F0ED
:1031A0000045814233DD6449814219DD0026324603
:1031B0004FF080432046294600F0E0FB80468A46D7
:1031C00001222046294601F028FB00223B4600F060
:1031D00041FF4246534600F081FC04460D463EE066
:1031E00001260022BA463B462046294600F0C6FB8F
:1031F00080460F46002253462046294600F02AFF0B
:1032000042463B4600F06AFC04460D4627E04B4927
:1032100081421BDDDFF828A102260022534620460A
:10322000294600F00DFE00223B4600F0A7FB804639
:103230000F46002253462046294600F00BFF424627
:103240003B4600F04BFC04460D4608E003262246B0
:103250002B4600203B4900F041FC04460D46224627
:103260002B461046194600F0EBFD8B46824602467F
:103270000B4600F0E5FD07460246334888460B46FC
:1032800006217844FFF77AFE52465B4600F0D8FDEF
:1032900082462E488B463A46434605217844FFF73E
:1032A0006DFE3A46434600F0CBFD02460B46002E2B
:1032B000504659460CDA00F061FB22462B4600F0DE
:1032C000BFFD01B022462B46BDE8F04F00F0B6BE70
:1032D00000F054FB22462B4600F0B2FD1C4A7A4413
:1032E00002EBC603D3E9002300F0B4FE22462B46CE
:1032F00000F0B0FE174A7A4402EBC603D3E900237C
:1033000000F09CFE009A002AB8BF81F00041BDE8A1
:10331000F88F0000000010440000F07F182D445486
:10332000FB21F93FFB21F9BF0000DC3F0000203EFC
:103330000000F33F0000F03F0000E63F0080034044
:103340000000F83F0000F0BFB21600007016000049
:103350000E160000D615000000F0F2B971B54FF45A
:1033600061754FF0E023104E009819E02C46A04202
:1033700000D804469869614201EBC10110EBC1011C
:1033800005D49A69824208DA8A42FADA05E08A1993
:1033900099698142FCDD9142FADC0098001B0090A3
:1033A0000028E3D178BD0000401901002DE9F04765
:1033B000244CD4F81C90A168484601F087F9824655
:1033C000514601F0ADF8D4F8188005464146404614
:1033D00001F0A6F8E16801F06FF9294601F076F9ED
:1033E000276805465046394601F09AF806462946B0
:1033F000404601F095F8314601F068F9064650461E
:10340000294601F08DF805464146384601F088F816
:10341000294600F035FF676805463146384601F019
:103420007FF8414600F02CFFA0612946384601F0A4
:1034300077F8494600F024FFE0612169BDE8F047D4
:1034400001F06EB8C400002010B5204CA279A1880C
:103450002068FDF738FAA27BA189A068FDF733FA4E
:10346000A27DA18A2069FDF72EFAA27FA18BA06917
:10347000FDF729FA3220FDF717F97522D2212046EF
:10348000FEF781FB124C04F8500F3220FDF70CF9C7
:1034900000234E22D2210D48FEF7A8FC3220FDF772
:1034A00003F900231A4619461846FEF7FBFF32209F
:1034B000FDF7FAF80F234E22D2210448FEF796FCBE
:1034C0003220FDF7F1F80120607010BD500000209F
:1034D0001003002010B5FCF78FFFBDE81040FFF788
:1034E0003BBF000070B515460E4608B1012200E052
:1034F00000220D4C4FF400512046FDF7E4F90EB1C7
:10350000012200E000224FF480412046FDF7DBF964
:103510000DB1012200E000222046BDE870404FF4CA
:103520000041FDF7D0B90000001001400022114613
:103530000120FFF7D7BF0000FDF7D8F9FFF70EF81D
:10354000FEF70EFEFEF722FEFEF70AFEFEF786FEEF
:10355000FEF76CFFFEF700FFFEF732FFFEF782FF7B
:10356000FCF700FFFFF770FF2348FDF799FD2348A4
:10357000FDF796FD00212248FDF7B4FF0421204805
:10358000FDF7B0FF08211E48FDF7ACFF0C211C48D9
:10359000FDF7A8FF08211848FDF7A4FF0C211648E5
:1035A000FDF7A0FF012217491748FEF7FDF9012298
:1035B00016491748FEF7F8F916494FF4817008606C
:1035C000091D4FF441700860091D40F20650086063
:1035D000091D4FF4E1600860091D0F480860091DCE
:1035E0000E480860091D0E480860091D0D48086056
:1035F00000F092F8FEE70000500100209801002042
:103600000801002035000020E001002036000020E5
:103610002802002000000020CDCCCC3C295C0F3DCE
:10362000EC51383DDF4F8D3D31B5104C10499DF8C0
:1036300000002278002562B1FF2888540FD0FF23B4
:10364000012269460B48FEF7E3F92078401C207000
:1036500038BD772801D10870F1E7257038BDFF2308
:10366000012269460348FEF7D3F9F6E7340000204B
:10367000F4000020E001002000B5254B21F00042BD
:1036800087B09A4203DC0022134600922BE0214BC4
:103690009A4208D140B94FF00100FCF7C4FDFFF792
:1036A0003CFD07B000BD03DBFFF734FD07B000BDF4
:1036B00002AAFFF721FA10F003014FF001000DD02C
:1036C000012914D002291AD00DF1080C9CE80F0032
:1036D000FFF7D6FB07B081F0004100BD0DF1080CEB
:1036E00000909CE80F00FFF79FFC07B000BD0DF1B4
:1036F000080C9CE80F00FFF7C3FB07B000BD0DF1FD
:10370000080C00909CE80F00FFF78EFCE2E7000039
:10371000FB21E93F0000F07F10B50648FDF7ECFC07
:103720000548FDF7E9FC05480068C16821F0200163
:10373000C16010BD5001002098010020E001002070
:103740002DE9FF5F5F4890F8241000297ED05E4984
:10375000DFF8788100240E788246EB46CEB34FF630
:10376000FF7000BF00F058FB05460AEB44000F460F
:10377000008B00F051FB2A463B4600F0AFF900F009
:10378000CBF84BF8240058F82410074611F0FF4FEF
:1037900022D0084600F048FD4D4A4E4B00F050FB49
:1037A00005468946384600F03FFD4B4A4B4B00F03A
:1037B00047FB2A464B4600F0E1F800F0ADF848F828
:1037C0002400641C042CC9DB454D2878642806D0ED
:1037D00020E0FFE7FF20C5E748F82470F1E700216B
:1037E0002970404AD8F80800904212DB00F01CFD16
:1037F0004FF033323C4B00F02DFC00223B4B00F0ED
:103800001FFB00223A4B00F0B9F800F085F8686021
:1038100000E0696044463749D8F8040000F080FEB3
:10382000354900F07DFEA860206800F0FDFC002214
:10383000324B00F00FFC0022314B00F001FB00F096
:103840006BF8E8602978491C297000E037E02D49C1
:1038500088606868086010F0FF4F05D0FFF7A6FD8C
:10386000A96800F05DFE2861DFF86080DFF89890BD
:10387000DFF898A0DFF898B00024A8F11008686875
:1038800000F0D2FC06460F46287800F0C5FA002268
:103890004B4600F023F932463B4600F0D1FA52463F
:1038A0005B4600F0CDFAFFF7E7FE46461949286966
:1038B00000F0E6FC46F82400641C042CDFDBBDE8C5
:1038C000FF9F0000E402002037000020C402002017
:1038D000CDCCCCCCCCCCEC3F9A9999999999B93F65
:1038E000200000209A99193F3333E33F0000344011
:1038F0000000204000001644000040400000E03F6F
:10390000000008C0C4000020000059401F85EB5192
:10391000B81E19400080BB4421F00042A2F1605261
:10392000B2F5801F01F0004328BFD2F17F6C0BD9A4
:103930005FEA001C43EAC20242EB507018BF7047B6
:1039400028BF20F001007047B2F5801FBCBF1846A9
:1039500070474FEA410C1CF5001F02D2084600F0E8
:10396000A6BE70B500F016FB00000089FFF7F6BF99
:103970004FF00040A0F580007047000010B591EABC
:10398000030F48BF83F0004300F16C83841A71EB8E
:10399000030C05D2121943EB0C03001B61EB0C0165
:1039A000DFF824E14FEA1154A4EB135C1EEA430F45
:1039B00018BF9EEA445F73D023EA0E03DCF1200EA9
:1039C00021EA045143F4801332D322FA0CFE10EBA7
:1039D0000E0023FA0CFE41EB0E01CCF1200E03FA8F
:1039E0000EFE10EB0E0051F10001B1F5801FCCF17D
:1039F000200E32D201EB045112FA0EF2BDE8104053
:103A000058BF7047401C38BF5FEA420218BF70477A
:103A1000002814BF20F0010041F100014FEA4103EA
:103A200013F5001F38BF7047A1F1C04100F000BB83
:103A3000012A43EB0302ACF1200CDCF11F0E32BF74
:103A40004FF0000E23FA0CF310EB030041EB04518E
:103A5000B4EB115FD0D0A1EB045101F580114908FE
:103A60005FEA300001EB04510ED350F1000038BF83
:103A700012FA0EFE08D1BDE81040C9E7401C38BF5D
:103A80005FEA4202CAD1C3E7BDE810404FEA4103F2
:103A900013F5001F38BF7047A1F1C04100F0C8BA4C
:103AA0009EEA445F08D011EA5E0FBDE8104004BFF3
:103AB00001F0004100207047BDE8104070B500F0F3
:103AC00069FA00BF64FBBE3E0000E0FF02494FF010
:103AD000000000F070BE00BF0000F87F2DE9C0417B
:103AE00030B4DFF8A0C23CEA111418BF3CEA13144A
:103AF00000F0EC8081EA03051CEA111444EAD57455
:103B000018BF1CEA131500F0C780A4EB05044FF0A2
:103B1000004545EAC12145EAC32341EA505143EA41
:103B2000525304F17F74994204F500344FEAC020E7
:103B30004FEAC22208BF904200F09C804FEA136512
:103B40000FF24016765D4FEA134506FB05F7C7F105
:103B5000807706FB07F74FEAD737A7FB0368764263
:103B6000C8F58038A7FB06CE38BFA8F1010807FBCF
:103B700008E64FF0000EA6FB028CE6FB03CEDCF15C
:103B8000000CCEF1004E38BFAEF1010EA6FB0C5872
:103B90004FF000074FF00005E6FB0E87A1FB08C6BB
:103BA000A0FB07CE16EB0E0645F10005E1FB07650D
:103BB00015F1E04E7EBFA4F580345FEA46066D4104
:103BC00016F1800745F100054FEA17274FEA066610
:103BD00047EA0567A6F1DE46B6F1805F4FEA152594
:103BE0001FD9384624F0010C05EBC471BCF1FE6FFF
:103BF00001EB0C1102D8F0BCBDE8008124425CBF8F
:103C000001F5801E9EEAC47F02D4F0BCBDE80081AD
:103C1000244238D4F0BCA1F1C041BDE8004100F01D
:103C200007BA4FEAD22242EA43524FEAD323A7FB14
:103C300002864FEAD02040EA415007FB03661EEAA5
:103C40000E0F4FEAD12105FB026658BFA6EB0056C6
:103C5000B6EB00564FEA520E4EEAC37E18EB0E0E3C
:103C600056EB530EBDD518EB02085E417F1C55F193
:103C70000005B6E74FF480154FF000074FF000063F
:103C80004FF00008ADE7F0BC4FF0000001F1C0417B
:103C900001F00041BDE8008111EA0C1F0CEA131588
:103CA00000D00CE013EA0C1F00F025804FF000005C
:103CB000F0BC81EA030101F00041BDE80081F0BCE5
:103CC000BDE8004181EA030100F0B2B9F0BCBDE8F3
:103CD000004170B500F05EF9097EFC3E00F007B8C7
:103CE00081EA03014FF0000001F00041704781EAD2
:103CF000030100F09DB9F0BCBDE800414FF00000A9
:103D000021497047FFFDFBF9F7F5F4F2F0EEEDEB1A
:103D1000E9E8E6E4E3E1E0DEDDDBDAD8D7D5D4D3C9
:103D2000D1D0CFCDCCCBCAC8C7C6C5C4C2C1C0BF15
:103D3000BEBDBCBBBAB9B8B7B6B5B4B3B2B1B0AF1B
:103D4000AEADACABAAA9A8A8A7A6A5A4A3A3A2A1FF
:103D5000A09F9F9E9D9C9C9B9A99999897979695BA
:103D600095949393929191908F8F8E8E8D8C8C8B56
:103D70008B8A8989888887878685858484838382DE
:103D8000828181800000FF070000F87F4FEA410335
:103D90004FEA5353A3F58063D3F11E03C8BFD3F199
:103DA000210C0CDD4FF0004242EAC12242EA50529F
:103DB00032FA03FC8CEAE17CACEBE1707047102B2B
:103DC000C4BF0020704703F5787CBCF1FF3F04D0EE
:103DD0006FF0004282EA2100704770B500F0DAF817
:103DE0004992248000207047F2E710F0004248BF5B
:103DF0004042B0FA80F310FA03F10AD0C3F11D0378
:103E000003F580634FEA415002EB035202EBD121EC
:103E100070474FF000007047B0FA80F310FA03F1DA
:103E20000AD0C3F11D0303F580634FEA41504FEA06
:103E3000035202EBD12170474FF0000070470000A1
:103E4000DFF848C170B51CEA111E1EBF1CEA13152D
:103E50009EEA0C0F95EA0C0F00F06F8081EA0304D4
:103E600023EA4C134EEAD47E21EA4C1141F480112E
:103E700043F48013AE44A1FB024CA0FB0365AEF1FA
:103E80007F7E361955EB0C05A1FB034C4CF100036A
:103E9000A0FB021C16EB0C06654153F1000309421E
:103EA00018BF46F0010613F4007F0BD14FEA03312F
:103EB0004FEA0530340341EA155140EA16506FF0DD
:103EC00003020AE04FEAC3214FEAC520F40241EAA7
:103ED000555140EA56506FF0020202EB2E4201EBC0
:103EE000025585EACE710AD05FEA440C18BF24F06F
:103EF000004450F1000041F1000120EAD47040F28A
:103F0000FE7C624500D270BDA84214BF4FF08044D1
:103F10004FF04044002E08BF0024BEF1806FA8BFC0
:103F2000A1F1C041BDE8704080F282804FF00000F6
:103F300001F1C04101F0004170479EEA0C0F0CEA0C
:103F4000131518BF95EA0C0F06D04FF0000081EA58
:103F5000030E0EF0004170BD00F01CF88900013E18
:103F600000F007B800F009B84FEA430C5FEA5C5C68
:103F700008D081EA030100F05BB84FEA410C5FEA28
:103F80005C5CF6D14FF00000014970470000FF076C
:103F90000000F87F0EF1020E2EF0030E5EF8046BA7
:103FA000364205D4012A43EB030515F5001F12D84C
:103FB000012841EB010C1CF5001F0CD80ED14FEA73
:103FC000D17C15F5001F0CEB4C0C0CF1020C08BF5A
:103FD0004CEBD37C04E04FF0080C01E04FEAD37CBB
:103FE0000CEB4C0526FA05F606F00706B6F1040CB4
:103FF00006D20EEB860CBDE870404CF0010C604719
:10400000DFE80CF0090B02024FF000414FF0000016
:10401000A1F5002170BD19461046012851EB01049D
:1040200018BFD4F5001484BF002001F0004170BD1A
:104030000808A0F500114FEA3101704791EA030F1B
:1040400010B581F000413FF5A1AC83F0004300F0D2
:1040500009B8000010B591EA030F48BF83F0004390
:104060003FF594AC841A71EB030C07D212198CF053
:10407000004C43EB0C03001B61EB0C01DFF8A4E1E7
:104080004FEA1154A4EB135C1EEA430F18BF9EEADB
:10409000445F00F0B08023EA6E03524221EA0451EB
:1040A000C3EB6E0338BF5B1EDCF1200E25D322FA72
:1040B0000CFE10EB0E0043FA0CFE41EB0E01CCF1AE
:1040C000200E03FA0EFE10EB0E0051F10001CCF1B0
:1040D000200E29D412FA0EF201EB0451BDE8104073
:1040E00058BF7047401C1CBFB2F1004F70470028FA
:1040F0000CBF491C20F00100704712EB020E43EB8D
:10410000030218BF4FF0010E4EEA4202ACF1200C40
:10411000DCF11E0E54D943FA0CFE10EB0E0051F1E7
:10412000FF31CCF11E0ED5D50EF1010E12FA0EFEA6
:10413000404141EB010101EB445C5FEA5C5C10D95A
:1041400010EBDE7001EB045138BFBEF1004FBDE84B
:10415000104018BF704700280CBF491C20F0010018
:10416000704730D24FEAD42C11F5001124F40064CA
:104170001BD0B1FA81F20B3AA41AA41ED2F120038B
:10418000914030FA03F31943904001EBCC71002CBD
:1041900001EB0451BDE81040A8BF704701F1C041D8
:1041A0004FF0000001F000417047B0FA80F310FAC0
:1041B00003F100D110BDE41A173C4805C90AE4E731
:1041C00001EB045110BD491001EB0451BDE8104052
:1041D0004FEA300002E04FF0000170474A0008BF8C
:1041E0000042F8D0B2F5001F28BF704701F000412F
:1041F0004FF0000070479EEA445F07D011EA5E0F5F
:10420000BDE8104004BF002100207047BDE8104009
:1042100070B5FFF7BFFE00BF40DFF63E83F0004100
:10422000104670470000E0FF43004FEAD30C4FEA0E
:104230003C0C43401FBF40070CF1605113F0FE4F90
:1042400070471CF0006F03D100200CF00041704754
:104250000CF0004343EA507010B540EACC0000F087
:10426000E0F900BF000000924FEA0001FFF7E0BE56
:104270004FF000414FF00000A1F500217047000011
:1042800090EA010F48BF81F0004100F12682421AF6
:104290003CBF801A89184FEAD0524FF07F4C1CEA7D
:1042A000410FA2EBD15318BF9CEA026F00F03B8094
:1042B0004FF0004C4CEA00204CEA012121FA03FCAB
:1042C00010EB0C0C1ED202F1FF325FEA1C2040EB17
:1042D000C25038BF70471CF07F0F4FEA400C18BF28
:1042E000BCF17F4F38BF7047C3F12003994008BF2E
:1042F00020F00100BCF17F4F38BF7047A0F1C040F3
:1043000000F0D5B94FEA3C00000A40EBC25028BF8C
:104310001CF0FF0F4FEA400CE6D018BFBCF17F4FF6
:1043200038BF7047EAE79CEA026F05D010EA5C0FDD
:1043300008BF00F00040704710B500F072F900BFF0
:1043400064FBBE3E4FF47F0C1CEAD0121EBF1CEA79
:10435000D11392EA0C0F93EA0C0F00F0858090EADB
:10436000010F48BF42F4807240F4000C41F4000099
:104370002CF07F4120F07F4000B58142A2EB030288
:104380000FF2081CACEB504EC0F100009EF800E0AC
:104390004FEA4E0E00FB0EFC38BF49004FEA2C1CC2
:1043A00002F5FA020CFB0EF34FEACE1E4FEA112C77
:1043B0004FEAC1210EEB635E42EB22420EFB0CFC86
:1043C0004FEA1C5300FB03114FEA112C4FEA013155
:1043D0000EFB0CFC4FEADC4C00FB0C11C14228BF69
:1043E00009184CEB03335DF804EB10EB410143EB90
:1043F000C250B2F57C0F38BF704729D512F0F00FCC
:104400001CBF00F1C04000F0004070470081828373
:104410008485868788898B8C8D8E8F9192939596D3
:1044200097999A9C9D9FA0A2A3A5A7A8AAACAEB05D
:10443000B2B3B5B7B9BCBEC0C2C5C7C9CCCED1D462
:10444000D7D9DCDFE2E6E9ECF0F3F7FAFE00000092
:104450004FEA400C0CF1807CBCF17E4F28BF7047C6
:10446000B0F1C04000F023B990EA010F0CEAD1137B
:1044700048BF42F48072624538BF634507D213F4E7
:104480007F0F16D080EA010000F00040704710B5A1
:1044900000F0C7F8097EFC3E00F005B880EA010094
:1044A00000F00040704780EA010000F0004000F09A
:1044B000FEB812F47F0F04BF0248704780EA010083
:1044C00000F0F5B80000C07F10F0004148BF404246
:1044D000B0FA80F310FA03F2C3F19D030BD051EA56
:1044E000C35101EB1220530638BF704700F10100A1
:1044F00008BF20F001007047B0FA80F310FA03F211
:10450000C3F19D030AD0D90501EB1220530638BF31
:10451000704700F1010008BF20F001007047000063
:104520004FF47F0C1CEAD0121EBF1CEAD11392EA92
:104530000C0F93EA0C0F00F0478090EA010F48BF80
:1045400042F480724FF0004C4CEA00204CEA01210A
:1045500002EB0302A0FB0113A2F50002002918BF21
:1045600043F001035B0028BF4FEA330342EB2242D2
:104570005FEA132C4CEBC2502EBFBCEB436FB2F57D
:104580007C0F70474FEA036CBCF1004F08BF20F06E
:104590000100B2F57C0F38BF70470BD582F0FF02E7
:1045A00012F5803FC8BF704700F1C040D8BF00F08F
:1045B0000040704700F5000C5FEA4C0C48BF7047A4
:1045C000B0F1C04000F073B890EA010F0CEAD113CB
:1045D00048BF42F48072624538BF634504D280EA26
:1045E000010000F00040704710B500F01AF800BF5D
:1045F0008900013E00F007B800F009B85FEA410CFD
:104600005FEA1C6C08D080EA010000F050B85FEA55
:10461000400C5FEA1C6CF6D14FF00040A0F5800022
:1046200070470EF1020E2EF0030E5EF8044B24428A
:1046300004D44FEA4102B2F17F4F11D84FEA400350
:10464000B3F17F4F0CD80ED14FEAD07CB2F17F4F3F
:104650000CEB4C0C0CF1020C08BF4CEBD17C04E0D1
:104660004FF0080C01E04FEAD17C0CEB4C0324FA2C
:1046700003F404F00704B4F1040C06D20EEB840C2E
:10468000BDE810404CF0010C6047DFE80CF0070873
:1046900002024FF00040A0F5800010BD0846420025
:1046A00018BFD2F1807288BF00F0004010BDFF211A
:1046B00041EAD050C005704780F0004090EA010FF9
:1046C0007FF5E5AD81F0004100F007B890EA010FF9
:1046D00048BF81F000413FF5DAAD421A04D882F0BC
:1046E0000042A0EB020011444FEAD0524FF07F4C41
:1046F0001CEA410FA2EBD15318BF9CEA026F4AD0CB
:104700004FF0004C4CEA00204CEA012121FA03FC56
:10471000B0EB0C0C0FD412F0FE0F36D05FEA4C0059
:104720001DD5001240EBC25038BF70471CF03F0F40
:1047300018BF70470BE0A2F101025FEA1C2040EBBA
:10474000C25038BF70471CF07F0F18BF7047C3F1CD
:104750002003994014BF401E20F0010070478008DC
:104760004FEA122308BF7047B0FA80FCA2EB0C029C
:10477000CCF1280C60FA0CF093EA122F04BF00EB86
:10478000C25070474FEAC3707047130A5FEADC10EB
:1047900008BF7047F6E79CEA026F04D010EA5C0F8E
:1047A00008BF0020704710B5FFF73BFF40DFF63E23
:1047B00081F0004070470CF00F03092B08BF082060
:1047C00000F059800A2B0BD0082B18BF704708BF88
:1047D0001CF0400F0AD04FF000004FF0000170476E
:1047E0001CF0400F18BF4FF0004070471CF0100F36
:1047F00008D020F0704300F07F4242EAD3014FEA34
:104800004370704700F0604021F07F4242EA0002AE
:1048100001F07F4040EA727070474FF0FF0C4CF49B
:10482000E06C1CEA11531CBF9CEA030C9445C2BF08
:10483000DA4201EB02517047002B0DD0BCF1000FA2
:104840000FD0002A01F00041A4BF41F0E04141F047
:104850007F614FF00000704701F000414FF0000011
:10486000704750EA01334FF09B0C18BF4CF0806C3E
:104870007FF42CA970471CF4801F11D01CF4E02F8A
:1048800003D06FEACC31490070474FF04050EFF34E
:10489000008222F0704242EA000282F300887047F0
:1048A0004FF00000704701020203040506070809E3
:1048B0000A0B0C0D0E0F101000000000000000008D
:1048C00001020304060708090000000001020304B6
:1048D0004FBB610567ACDD3F182D4454FB21E93F18
:1048E0009BF681D20B73EF3F182D4454FB21F93F07
:1048F000E2652F227F2B7A3C075C143326A6813C8D
:10490000BDCBF07A8807703C075C143326A6913C37
:10491000C4EB98999999C9BF711623FEC671BCBFA3
:104920006D9A74AFF2B0B3BF9AFDDE522DDEADBF0B
:104930002F6C6A2C44B4A2BF0D5555555555D53F23
:10494000FF8300922449C23F6E204CC5CD45B73F3E
:10495000513DD0A0660DB13FEB0D76244B7BA93FB6
:1049600011DA22E33AAD903F4C5555555555A53FC8
:104970007751C1166CC156BF9015CB19A001FA3EF4
:10498000AD529C804F7E92BEC4B1B4BD9EEE213E1E
:10499000D43888BEE9FAA8BD00004054FB21F93F95
:1049A0003163621A61B4D03D0000601A61B4D03D39
:1049B0007370032E8A19A33B0000002E8A19A33BB3
:1049C000C14920259A837B390000000000000000C7
:1049D0006E83F9A22915444ED15727FCC0DD34F56A
:1049E000999562DB4190433CAB6351FE61C5BBDEF0
:1049F0003A6E24B7E0D24D42EA2E49061C92D10904
:104A00001CEB1DFE3EA729B1F53582E88444BB2E80
:104A100026709CE9417E5FB439D69139F4395383CD
:104A20008B5F849C3B28F9BDFF97F81F0F9805DE2C
:104A30008B112FEF1F6D0A5ACF7E366DB709CB272A
:104A4000663F464F2DEA5F9EC7BA27757BF1E5EBBF
:104A5000F739073DEA92528AB15FFB6B085D8D1F03
:104A6000A6F810111111813FD561C119A0012ABF0B
:104A70007DFEB157E31DC73EEB9C2B8AE6E55ABE8F
:104A80007CD5CF5A3AD9E53DA84A0008000000205D
:104A9000F4000000280100089C4B0008F4000020EE
:104AA000F4080000440100080000000000000000BD
:104AB00000000000000000000000000000000000F6
:104AC00000000000000000000000000000000000E6
:104AD00000000000000000000000000000000000D6
:104AE00000C1C1C1C0000019041C0000000000008A
:104AF0000000803F0000803F000C014000040100E6
:104B0000000C014004000100000C014000080100FD
:104B1000000C014002000100010000000100000043
:104B20006F12833AA69B443B0000003F0AD7233D07
:104B30000000000000000000000000000000000075
:104B40000000000000000000000000000000000065
:104B50000000000000000000000000000000803F96
:104B600000000000000000000000803F0000404006
:104B70000AD7233C000000000000803F3333B33EDF
:104B800000000000CDCCCC3DCDCCCC3D01000000E0
:0C4B900010000000000000000024F400F1
:04000005080000ED02
:00000001FF
